{
  "_format": "hh-sol-artifact-1",
  "contractName": "voting",
  "sourceName": "contracts/voting.sol",
  "abi": [
    {
      "anonymous": false,
      "inputs": [
        {
          "indexed": true,
          "internalType": "address",
          "name": "voter",
          "type": "address"
        },
        {
          "indexed": false,
          "internalType": "string",
          "name": "candidate",
          "type": "string"
        }
      ],
      "name": "VoteCast",
      "type": "event"
    },
    {
      "inputs": [],
      "name": "candidate1",
      "outputs": [
        {
          "internalType": "string",
          "name": "",
          "type": "string"
        }
      ],
      "stateMutability": "view",
      "type": "function"
    },
    {
      "inputs": [],
      "name": "candidate2",
      "outputs": [
        {
          "internalType": "string",
          "name": "",
          "type": "string"
        }
      ],
      "stateMutability": "view",
      "type": "function"
    },
    {
      "inputs": [
        {
          "internalType": "string",
          "name": "candidate",
          "type": "string"
        }
      ],
      "name": "castVote",
      "outputs": [],
      "stateMutability": "nonpayable",
      "type": "function"
    },
    {
      "inputs": [],
      "name": "getWinner",
      "outputs": [
        {
          "internalType": "string",
          "name": "",
          "type": "string"
        }
      ],
      "stateMutability": "view",
      "type": "function"
    },
    {
      "inputs": [
        {
          "internalType": "address",
          "name": "",
          "type": "address"
        }
      ],
      "name": "votes",
      "outputs": [
        {
          "internalType": "bool",
          "name": "",
          "type": "bool"
        }
      ],
      "stateMutability": "view",
      "type": "function"
    }
  ],
  "bytecode": "0x60806040526040518060400160405280600781526020017f4d616e69736861000000000000000000000000000000000000000000000000008152506000908051906020019062000051929190620000b9565b506040518060400160405280600781526020017f52697368696b6100000000000000000000000000000000000000000000000000815250600190805190602001906200009f929190620000b9565b506000600255348015620000b257600080fd5b50620001ce565b828054620000c79062000198565b90600052602060002090601f016020900481019282620000eb576000855562000137565b82601f106200010657805160ff191683800117855562000137565b8280016001018555821562000137579182015b828111156200013657825182559160200191906001019062000119565b5b5090506200014691906200014a565b5090565b5b80821115620001655760008160009055506001016200014b565b5090565b7f4e487b7100000000000000000000000000000000000000000000000000000000600052602260045260246000fd5b60006002820490506001821680620001b157607f821691505b60208210811415620001c857620001c762000169565b5b50919050565b610b8680620001de6000396000f3fe608060405234801561001057600080fd5b50600436106100575760003560e01c806301243fce1461005c5780635b57014c1461007a5780638e7ea5b2146100985780639cc2d993146100b6578063d8bff5a5146100d2575b600080fd5b610064610102565b604051610071919061066a565b60405180910390f35b610082610190565b60405161008f919061066a565b60405180910390f35b6100a061021e565b6040516100ad919061066a565b60405180910390f35b6100d060048036038101906100cb91906107d5565b610398565b005b6100ec60048036038101906100e7919061087c565b6105b1565b6040516100f991906108c4565b60405180910390f35b6000805461010f9061090e565b80601f016020809104026020016040519081016040528092919081815260200182805461013b9061090e565b80156101885780601f1061015d57610100808354040283529160200191610188565b820191906000526020600020905b81548152906001019060200180831161016b57829003601f168201915b505050505081565b6001805461019d9061090e565b80601f01602080910402602001604051908101604052809291908181526020018280546101c99061090e565b80156102165780601f106101eb57610100808354040283529160200191610216565b820191906000526020600020905b8154815290600101906020018083116101f957829003601f168201915b505050505081565b606060055460045411156102be57600080546102399061090e565b80601f01602080910402602001604051908101604052809291908181526020018280546102659061090e565b80156102b25780601f10610287576101008083540402835291602001916102b2565b820191906000526020600020905b81548152906001019060200180831161029557829003601f168201915b50505050509050610395565b600454600554111561035c57600180546102d79061090e565b80601f01602080910402602001604051908101604052809291908181526020018280546103039061090e565b80156103505780601f1061032557610100808354040283529160200191610350565b820191906000526020600020905b81548152906001019060200180831161033357829003601f168201915b50505050509050610395565b6040518060400160405280600381526020017f546965000000000000000000000000000000000000000000000000000000000081525090505b90565b60008151116103dc576040517f08c379a00000000000000000000000000000000000000000000000000000000081526004016103d39061098c565b60405180910390fd5b60001515600360003373ffffffffffffffffffffffffffffffffffffffff1673ffffffffffffffffffffffffffffffffffffffff16815260200190815260200160002060009054906101000a900460ff1615151461046f576040517f08c379a0000000000000000000000000000000000000000000000000000000008152600401610466906109f8565b60405180910390fd5b3373ffffffffffffffffffffffffffffffffffffffff167f866dc605853954ffa419910eb05d67f430efec2e7db7ce135bf55565667a4ab4826040516104b5919061066a565b60405180910390a26001600360003373ffffffffffffffffffffffffffffffffffffffff1673ffffffffffffffffffffffffffffffffffffffff16815260200190815260200160002060006101000a81548160ff0219169083151502179055506002600081548092919061052890610a51565b9190505550600060405161053c9190610b39565b60405180910390208180519060200120141561056f576004600081548092919061056590610a51565b91905055506105ae565b600160405161057e9190610b39565b6040518091039020818051906020012014156105ad57600560008154809291906105a790610a51565b91905055505b5b50565b60036020528060005260406000206000915054906101000a900460ff1681565b600081519050919050565b600082825260208201905092915050565b60005b8381101561060b5780820151818401526020810190506105f0565b8381111561061a576000848401525b50505050565b6000601f19601f8301169050919050565b600061063c826105d1565b61064681856105dc565b93506106568185602086016105ed565b61065f81610620565b840191505092915050565b600060208201905081810360008301526106848184610631565b905092915050565b6000604051905090565b600080fd5b600080fd5b600080fd5b600080fd5b7f4e487b7100000000000000000000000000000000000000000000000000000000600052604160045260246000fd5b6106e282610620565b810181811067ffffffffffffffff82111715610701576107006106aa565b5b80604052505050565b600061071461068c565b905061072082826106d9565b919050565b600067ffffffffffffffff8211156107405761073f6106aa565b5b61074982610620565b9050602081019050919050565b82818337600083830152505050565b600061077861077384610725565b61070a565b905082815260208101848484011115610794576107936106a5565b5b61079f848285610756565b509392505050565b600082601f8301126107bc576107bb6106a0565b5b81356107cc848260208601610765565b91505092915050565b6000602082840312156107eb576107ea610696565b5b600082013567ffffffffffffffff8111156108095761080861069b565b5b610815848285016107a7565b91505092915050565b600073ffffffffffffffffffffffffffffffffffffffff82169050919050565b60006108498261081e565b9050919050565b6108598161083e565b811461086457600080fd5b50565b60008135905061087681610850565b92915050565b60006020828403121561089257610891610696565b5b60006108a084828501610867565b91505092915050565b60008115159050919050565b6108be816108a9565b82525050565b60006020820190506108d960008301846108b5565b92915050565b7f4e487b7100000000000000000000000000000000000000000000000000000000600052602260045260246000fd5b6000600282049050600182168061092657607f821691505b6020821081141561093a576109396108df565b5b50919050565b7f43616e6469646174652063616e277420626520656d7074790000000000000000600082015250565b60006109766018836105dc565b915061098182610940565b602082019050919050565b600060208201905081810360008301526109a581610969565b9050919050565b7f596f75206861766520616c726561647920766f74656400000000000000000000600082015250565b60006109e26016836105dc565b91506109ed826109ac565b602082019050919050565b60006020820190508181036000830152610a11816109d5565b9050919050565b7f4e487b7100000000000000000000000000000000000000000000000000000000600052601160045260246000fd5b6000819050919050565b6000610a5c82610a47565b91507fffffffffffffffffffffffffffffffffffffffffffffffffffffffffffffffff821415610a8f57610a8e610a18565b5b600182019050919050565b600081905092915050565b60008190508160005260206000209050919050565b60008154610ac78161090e565b610ad18186610a9a565b94506001821660008114610aec5760018114610afd57610b30565b60ff19831686528186019350610b30565b610b0685610aa5565b60005b83811015610b2857815481890152600182019150602081019050610b09565b838801955050505b50505092915050565b6000610b458284610aba565b91508190509291505056fea2646970667358221220a3d0f44b6bb21ef4f05a76f8bf580a8e3123abe6cfa5140654ae06a9b8005e3f64736f6c63430008090033",
  "linkReferences": {},
  "deployedLinkReferences": {}
}