{
  "_format": "hh-sol-artifact-1",
  "contractName": "Voting",
  "sourceName": "contracts/Voting.sol",
  "abi": [
    {
      "anonymous": false,
      "inputs": [
        {
          "indexed": true,
          "internalType": "address",
          "name": "voter",
          "type": "address"
        },
        {
          "indexed": false,
          "internalType": "string",
          "name": "candidate",
          "type": "string"
        }
      ],
      "name": "VoteCast",
      "type": "event"
    },
    {
      "inputs": [],
      "name": "candidate1",
      "outputs": [
        {
          "internalType": "string",
          "name": "",
          "type": "string"
        }
      ],
      "stateMutability": "view",
      "type": "function"
    },
    {
      "inputs": [],
      "name": "candidate2",
      "outputs": [
        {
          "internalType": "string",
          "name": "",
          "type": "string"
        }
      ],
      "stateMutability": "view",
      "type": "function"
    },
    {
      "inputs": [
        {
          "internalType": "string",
          "name": "candidate",
          "type": "string"
        }
      ],
      "name": "castVote",
      "outputs": [],
      "stateMutability": "nonpayable",
      "type": "function"
    },
    {
      "inputs": [
        {
          "internalType": "string",
          "name": "candidate",
          "type": "string"
        }
      ],
      "name": "getVotes",
      "outputs": [
        {
          "internalType": "uint256",
          "name": "",
          "type": "uint256"
        }
      ],
      "stateMutability": "view",
      "type": "function"
    },
    {
      "inputs": [],
      "name": "getWinner",
      "outputs": [
        {
          "internalType": "string",
          "name": "",
          "type": "string"
        }
      ],
      "stateMutability": "view",
      "type": "function"
    },
    {
      "inputs": [
        {
          "internalType": "address",
          "name": "",
          "type": "address"
        }
      ],
      "name": "votes",
      "outputs": [
        {
          "internalType": "bool",
          "name": "",
          "type": "bool"
        }
      ],
      "stateMutability": "view",
      "type": "function"
    }
  ],
  "bytecode": "0x60806040526040518060400160405280600781526020017f4d616e6973686100000000000000000000000000000000000000000000000000815250600090816200004a919062000325565b506040518060400160405280600781526020017f52697368696b61000000000000000000000000000000000000000000000000008152506001908162000091919062000325565b506000600255348015620000a457600080fd5b506200040c565b600081519050919050565b7f4e487b7100000000000000000000000000000000000000000000000000000000600052604160045260246000fd5b7f4e487b7100000000000000000000000000000000000000000000000000000000600052602260045260246000fd5b600060028204905060018216806200012d57607f821691505b602082108103620001435762000142620000e5565b5b50919050565b60008190508160005260206000209050919050565b60006020601f8301049050919050565b600082821b905092915050565b600060088302620001ad7fffffffffffffffffffffffffffffffffffffffffffffffffffffffffffffffff826200016e565b620001b986836200016e565b95508019841693508086168417925050509392505050565b6000819050919050565b6000819050919050565b60006200020662000200620001fa84620001d1565b620001db565b620001d1565b9050919050565b6000819050919050565b6200022283620001e5565b6200023a62000231826200020d565b8484546200017b565b825550505050565b600090565b6200025162000242565b6200025e81848462000217565b505050565b5b8181101562000286576200027a60008262000247565b60018101905062000264565b5050565b601f821115620002d5576200029f8162000149565b620002aa846200015e565b81016020851015620002ba578190505b620002d2620002c9856200015e565b83018262000263565b50505b505050565b600082821c905092915050565b6000620002fa60001984600802620002da565b1980831691505092915050565b6000620003158383620002e7565b9150826002028217905092915050565b6200033082620000ab565b67ffffffffffffffff8111156200034c576200034b620000b6565b5b62000358825462000114565b620003658282856200028a565b600060209050601f8311600181146200039d576000841562000388578287015190505b62000394858262000307565b86555062000404565b601f198416620003ad8662000149565b60005b82811015620003d757848901518255600182019150602085019450602081019050620003b0565b86831015620003f75784890151620003f3601f891682620002e7565b8355505b6001600288020188555050505b505050505050565b610d2f806200041c6000396000f3fe608060405234801561001057600080fd5b50600436106100625760003560e01c806301243fce146100675780635b57014c14610085578063805265e5146100a35780638e7ea5b2146100d35780639cc2d993146100f1578063d8bff5a51461010d575b600080fd5b61006f61013d565b60405161007c919061077b565b60405180910390f35b61008d6101cb565b60405161009a919061077b565b60405180910390f35b6100bd60048036038101906100b891906108e6565b610259565b6040516100ca9190610948565b60405180910390f35b6100db61033a565b6040516100e8919061077b565b60405180910390f35b61010b600480360381019061010691906108e6565b6104b4565b005b610127600480360381019061012291906109c1565b6106cb565b6040516101349190610a09565b60405180910390f35b6000805461014a90610a53565b80601f016020809104026020016040519081016040528092919081815260200182805461017690610a53565b80156101c35780601f10610198576101008083540402835291602001916101c3565b820191906000526020600020905b8154815290600101906020018083116101a657829003601f168201915b505050505081565b600180546101d890610a53565b80601f016020809104026020016040519081016040528092919081815260200182805461020490610a53565b80156102515780601f1061022657610100808354040283529160200191610251565b820191906000526020600020905b81548152906001019060200180831161023457829003601f168201915b505050505081565b60008082511161029e576040517f08c379a000000000000000000000000000000000000000000000000000000000815260040161029590610ad0565b60405180910390fd5b60006040516102ad9190610b93565b60405180910390208280519060200120036102cc576004549050610335565b60016040516102db9190610b93565b60405180910390208280519060200120036102fa576005549050610335565b6040517f08c379a000000000000000000000000000000000000000000000000000000000815260040161032c90610bf6565b60405180910390fd5b919050565b606060055460045411156103da576000805461035590610a53565b80601f016020809104026020016040519081016040528092919081815260200182805461038190610a53565b80156103ce5780601f106103a3576101008083540402835291602001916103ce565b820191906000526020600020905b8154815290600101906020018083116103b157829003601f168201915b505050505090506104b1565b600454600554111561047857600180546103f390610a53565b80601f016020809104026020016040519081016040528092919081815260200182805461041f90610a53565b801561046c5780601f106104415761010080835404028352916020019161046c565b820191906000526020600020905b81548152906001019060200180831161044f57829003601f168201915b505050505090506104b1565b6040518060400160405280600381526020017f546965000000000000000000000000000000000000000000000000000000000081525090505b90565b60008151116104f8576040517f08c379a00000000000000000000000000000000000000000000000000000000081526004016104ef90610ad0565b60405180910390fd5b60001515600360003373ffffffffffffffffffffffffffffffffffffffff1673ffffffffffffffffffffffffffffffffffffffff16815260200190815260200160002060009054906101000a900460ff1615151461058b576040517f08c379a000000000000000000000000000000000000000000000000000000000815260040161058290610c62565b60405180910390fd5b3373ffffffffffffffffffffffffffffffffffffffff167f866dc605853954ffa419910eb05d67f430efec2e7db7ce135bf55565667a4ab4826040516105d1919061077b565b60405180910390a26001600360003373ffffffffffffffffffffffffffffffffffffffff1673ffffffffffffffffffffffffffffffffffffffff16815260200190815260200160002060006101000a81548160ff0219169083151502179055506002600081548092919061064490610cb1565b919050555060006040516106589190610b93565b604051809103902081805190602001200361068a576004600081548092919061068090610cb1565b91905055506106c8565b60016040516106999190610b93565b60405180910390208180519060200120036106c757600560008154809291906106c190610cb1565b91905055505b5b50565b60036020528060005260406000206000915054906101000a900460ff1681565b600081519050919050565b600082825260208201905092915050565b60005b8381101561072557808201518184015260208101905061070a565b60008484015250505050565b6000601f19601f8301169050919050565b600061074d826106eb565b61075781856106f6565b9350610767818560208601610707565b61077081610731565b840191505092915050565b600060208201905081810360008301526107958184610742565b905092915050565b6000604051905090565b600080fd5b600080fd5b600080fd5b600080fd5b7f4e487b7100000000000000000000000000000000000000000000000000000000600052604160045260246000fd5b6107f382610731565b810181811067ffffffffffffffff82111715610812576108116107bb565b5b80604052505050565b600061082561079d565b905061083182826107ea565b919050565b600067ffffffffffffffff821115610851576108506107bb565b5b61085a82610731565b9050602081019050919050565b82818337600083830152505050565b600061088961088484610836565b61081b565b9050828152602081018484840111156108a5576108a46107b6565b5b6108b0848285610867565b509392505050565b600082601f8301126108cd576108cc6107b1565b5b81356108dd848260208601610876565b91505092915050565b6000602082840312156108fc576108fb6107a7565b5b600082013567ffffffffffffffff81111561091a576109196107ac565b5b610926848285016108b8565b91505092915050565b6000819050919050565b6109428161092f565b82525050565b600060208201905061095d6000830184610939565b92915050565b600073ffffffffffffffffffffffffffffffffffffffff82169050919050565b600061098e82610963565b9050919050565b61099e81610983565b81146109a957600080fd5b50565b6000813590506109bb81610995565b92915050565b6000602082840312156109d7576109d66107a7565b5b60006109e5848285016109ac565b91505092915050565b60008115159050919050565b610a03816109ee565b82525050565b6000602082019050610a1e60008301846109fa565b92915050565b7f4e487b7100000000000000000000000000000000000000000000000000000000600052602260045260246000fd5b60006002820490506001821680610a6b57607f821691505b602082108103610a7e57610a7d610a24565b5b50919050565b7f43616e6469646174652063616e277420626520656d7074790000000000000000600082015250565b6000610aba6018836106f6565b9150610ac582610a84565b602082019050919050565b60006020820190508181036000830152610ae981610aad565b9050919050565b600081905092915050565b60008190508160005260206000209050919050565b60008154610b1d81610a53565b610b278186610af0565b94506001821660008114610b425760018114610b5757610b8a565b60ff1983168652811515820286019350610b8a565b610b6085610afb565b60005b83811015610b8257815481890152600182019150602081019050610b63565b838801955050505b50505092915050565b6000610b9f8284610b10565b915081905092915050565b7f496e76616c69642063616e646964617465206e616d6500000000000000000000600082015250565b6000610be06016836106f6565b9150610beb82610baa565b602082019050919050565b60006020820190508181036000830152610c0f81610bd3565b9050919050565b7f596f75206861766520616c726561647920766f74656400000000000000000000600082015250565b6000610c4c6016836106f6565b9150610c5782610c16565b602082019050919050565b60006020820190508181036000830152610c7b81610c3f565b9050919050565b7f4e487b7100000000000000000000000000000000000000000000000000000000600052601160045260246000fd5b6000610cbc8261092f565b91507fffffffffffffffffffffffffffffffffffffffffffffffffffffffffffffffff8203610cee57610ced610c82565b5b60018201905091905056fea2646970667358221220f2a3d5f1f82f94f09ef53219e096c6878175c426bd2f2f5d34d38a2fa78f9f9664736f6c63430008110033",
  "linkReferences": {},
  "deployedLinkReferences": {}
}